{
  "contractName": "ViewContract",
  "abi": [
    {
      "constant": false,
      "inputs": [],
      "name": "createWallet",
      "outputs": [],
      "payable": false,
      "stateMutability": "nonpayable",
      "type": "function"
    },
    {
      "constant": true,
      "inputs": [],
      "name": "getViewBalance",
      "outputs": [
        {
          "name": "",
          "type": "uint256"
        }
      ],
      "payable": false,
      "stateMutability": "view",
      "type": "function"
    },
    {
      "constant": false,
      "inputs": [],
      "name": "addVoteBalance",
      "outputs": [
        {
          "name": "",
          "type": "uint256"
        }
      ],
      "payable": false,
      "stateMutability": "nonpayable",
      "type": "function"
    },
    {
      "constant": false,
      "inputs": [],
      "name": "viewing1",
      "outputs": [],
      "payable": false,
      "stateMutability": "nonpayable",
      "type": "function"
    },
    {
      "constant": true,
      "inputs": [],
      "name": "getVoteBalance",
      "outputs": [
        {
          "name": "",
          "type": "uint256"
        }
      ],
      "payable": false,
      "stateMutability": "view",
      "type": "function"
    },
    {
      "constant": false,
      "inputs": [],
      "name": "addViewBalance",
      "outputs": [
        {
          "name": "",
          "type": "uint256"
        }
      ],
      "payable": false,
      "stateMutability": "nonpayable",
      "type": "function"
    }
  ],
  "bytecode": "0x6060604052341561000f57600080fd5b61044d8061001e6000396000f300606060405260043610610078576000357c0100000000000000000000000000000000000000000000000000000000900463ffffffff16806311ebbf241461007d578063274aafcb146100925780632b8b333a146100bb5780636a23ef34146100e45780639469378e146100f9578063ada8eefc14610122575b600080fd5b341561008857600080fd5b61009061014b565b005b341561009d57600080fd5b6100a56101b9565b6040518082815260200191505060405180910390f35b34156100c657600080fd5b6100ce610202565b6040518082815260200191505060405180910390f35b34156100ef57600080fd5b6100f761029b565b005b341561010457600080fd5b61010c61033f565b6040518082815260200191505060405180910390f35b341561012d57600080fd5b610135610388565b6040518082815260200191505060405180910390f35b60408051908101604052806000815260200160008152506000803373ffffffffffffffffffffffffffffffffffffffff1673ffffffffffffffffffffffffffffffffffffffff1681526020019081526020016000206000820151816000015560208201518160010155905050565b60008060003373ffffffffffffffffffffffffffffffffffffffff1673ffffffffffffffffffffffffffffffffffffffff16815260200190815260200160002060000154905090565b6000600a6000803373ffffffffffffffffffffffffffffffffffffffff1673ffffffffffffffffffffffffffffffffffffffff168152602001908152602001600020600101600082825401925050819055506000803373ffffffffffffffffffffffffffffffffffffffff1673ffffffffffffffffffffffffffffffffffffffff16815260200190815260200160002060010154905090565b60008060003373ffffffffffffffffffffffffffffffffffffffff1673ffffffffffffffffffffffffffffffffffffffff168152602001908152602001600020600001541115156102eb57600080fd5b6000803373ffffffffffffffffffffffffffffffffffffffff1673ffffffffffffffffffffffffffffffffffffffff1681526020019081526020016000206000016000815480929190600190039190505550565b60008060003373ffffffffffffffffffffffffffffffffffffffff1673ffffffffffffffffffffffffffffffffffffffff16815260200190815260200160002060010154905090565b6000600a6000803373ffffffffffffffffffffffffffffffffffffffff1673ffffffffffffffffffffffffffffffffffffffff168152602001908152602001600020600001600082825401925050819055506000803373ffffffffffffffffffffffffffffffffffffffff1673ffffffffffffffffffffffffffffffffffffffff168152602001908152602001600020600001549050905600a165627a7a72305820a2f6d2f6c187602df2c68b205f191db9c4151c014fea0555a587c28bb5353a720029",
  "source": "//TODO:\n//1. Optimize for gas\n\npragma solidity ^0.4.17;\n\ncontract ViewContract{\n\n    struct wallets{\n        uint viewBalance;\n        uint voteBalance;\n    }\n\n  mapping (address => wallets) balances;\n\n  function createWallet() public{\n    balances[msg.sender] = wallets(0,0);\n  }\n\n\tfunction viewing1() public{\n\t\trequire(balances[msg.sender].viewBalance > 0);\n    balances[msg.sender].viewBalance--;\n\t}\n\n// These 4 functions are solely for testing purposes\n  function addViewBalance() public returns (uint){\n    balances[msg.sender].viewBalance += 10;\n    return balances[msg.sender].viewBalance;\n  }\n\n  function addVoteBalance() public returns (uint){\n    balances[msg.sender].voteBalance+=10;\n    return balances[msg.sender].voteBalance;\n  }\n\n  function getViewBalance() view returns (uint){\n    return balances[msg.sender].viewBalance;\n  }\n\n  function getVoteBalance() view returns (uint){\n    return balances[msg.sender].voteBalance;\n  }\n}\n",
  "sourcePath": "/Users/Howy/git/ethProjs/truffle/vopo/contracts/ViewContract.sol",
  "compiler": {
    "name": "solc",
    "version": "0.4.18+commit.9cf6e910.Emscripten.clang"
  },
  "schemaVersion": "1.0.1",
  "updatedAt": "2018-02-18T05:46:28.080Z"
}