{
  "contractName": "ViewContract",
  "abi": [
    {
      "constant": false,
      "inputs": [
        {
          "name": "_website",
          "type": "string"
        }
      ],
      "name": "closeMarket",
      "outputs": [
        {
          "name": "",
          "type": "uint256"
        }
      ],
      "payable": false,
      "stateMutability": "nonpayable",
      "type": "function"
    },
    {
      "constant": false,
      "inputs": [],
      "name": "createWallet",
      "outputs": [
        {
          "name": "",
          "type": "uint256"
        }
      ],
      "payable": false,
      "stateMutability": "nonpayable",
      "type": "function"
    },
    {
      "constant": true,
      "inputs": [
        {
          "name": "_website",
          "type": "string"
        }
      ],
      "name": "getViewBalance",
      "outputs": [
        {
          "name": "",
          "type": "uint256"
        }
      ],
      "payable": false,
      "stateMutability": "view",
      "type": "function"
    },
    {
      "constant": false,
      "inputs": [],
      "name": "addVoteBalance",
      "outputs": [
        {
          "name": "",
          "type": "uint256"
        }
      ],
      "payable": false,
      "stateMutability": "nonpayable",
      "type": "function"
    },
    {
      "constant": false,
      "inputs": [
        {
          "name": "_website",
          "type": "string"
        },
        {
          "name": "number",
          "type": "uint256"
        },
        {
          "name": "vote",
          "type": "bool"
        }
      ],
      "name": "viewing",
      "outputs": [
        {
          "name": "",
          "type": "uint256"
        }
      ],
      "payable": false,
      "stateMutability": "nonpayable",
      "type": "function"
    },
    {
      "constant": false,
      "inputs": [
        {
          "name": "_website",
          "type": "string"
        },
        {
          "name": "number",
          "type": "uint256"
        },
        {
          "name": "vote",
          "type": "bool"
        }
      ],
      "name": "addVote",
      "outputs": [
        {
          "name": "",
          "type": "uint256"
        }
      ],
      "payable": false,
      "stateMutability": "nonpayable",
      "type": "function"
    },
    {
      "constant": false,
      "inputs": [
        {
          "name": "_website",
          "type": "string"
        },
        {
          "name": "number",
          "type": "uint256"
        },
        {
          "name": "vote",
          "type": "bool"
        }
      ],
      "name": "addVoteManualNoOrigin",
      "outputs": [
        {
          "name": "",
          "type": "uint256"
        }
      ],
      "payable": false,
      "stateMutability": "nonpayable",
      "type": "function"
    },
    {
      "constant": true,
      "inputs": [
        {
          "name": "_website",
          "type": "string"
        }
      ],
      "name": "getVoteBalance",
      "outputs": [
        {
          "name": "",
          "type": "uint256"
        }
      ],
      "payable": false,
      "stateMutability": "view",
      "type": "function"
    },
    {
      "constant": true,
      "inputs": [
        {
          "name": "_website",
          "type": "string"
        }
      ],
      "name": "getMarketView",
      "outputs": [
        {
          "name": "",
          "type": "uint256"
        }
      ],
      "payable": false,
      "stateMutability": "view",
      "type": "function"
    },
    {
      "constant": false,
      "inputs": [
        {
          "name": "_website",
          "type": "string"
        }
      ],
      "name": "addViewBalance",
      "outputs": [
        {
          "name": "",
          "type": "uint256"
        }
      ],
      "payable": false,
      "stateMutability": "nonpayable",
      "type": "function"
    },
    {
      "constant": false,
      "inputs": [
        {
          "name": "_website",
          "type": "string"
        }
      ],
      "name": "createOpenMarket",
      "outputs": [],
      "payable": false,
      "stateMutability": "nonpayable",
      "type": "function"
    }
  ],
  "bytecode": "0x60606040526003600155341561001457600080fd5b611129806100236000396000f3006060604052600436106100af576000357c0100000000000000000000000000000000000000000000000000000000900463ffffffff1680630fc26347146100b457806311ebbf2414610125578063274aafcb1461013a5780632b8b333a1461016357806333bf0fee1461018c5780633c05ba46146101e9578063777071951461025a5780639469378e146102cb5780639a6fc1db146102f4578063ada8eefc14610365578063cc50de191461038e575b600080fd5b34156100bf57600080fd5b61010f600480803590602001908201803590602001908080601f016020809104026020016040519081016040528093929190818152602001838380828437820191505050505050919050506103eb565b6040518082815260200191505060405180910390f35b341561013057600080fd5b61013861082d565b005b341561014557600080fd5b61014d61089c565b6040518082815260200191505060405180910390f35b341561016e57600080fd5b6101766108e6565b6040518082815260200191505060405180910390f35b341561019757600080fd5b6101e7600480803590602001908201803590602001908080601f01602080910402602001604051908101604052809392919081815260200183838082843782019150505050505091905050610981565b005b34156101f457600080fd5b610258600480803590602001908201803590602001908080601f016020809104026020016040519081016040528093929190818152602001838380828437820191505050505050919080359060200190919080351515906020019091905050610ab7565b005b341561026557600080fd5b6102c9600480803590602001908201803590602001908080601f016020809104026020016040519081016040528093929190818152602001838380828437820191505050505050919080359060200190919080351515906020019091905050610d3e565b005b34156102d657600080fd5b6102de610ed1565b6040518082815260200191505060405180910390f35b34156102ff57600080fd5b61034f600480803590602001908201803590602001908080601f01602080910402602001604051908101604052809392919081815260200183838082843782019150505050505091905050610f1b565b6040518082815260200191505060405180910390f35b341561037057600080fd5b610378610fa4565b6040518082815260200191505060405180910390f35b341561039957600080fd5b6103e9600480803590602001908201803590602001908080601f0160208091040260200160405190810160405280939291908181526020018383808284378201915050505050509190505061103f565b005b600080600080600080600080955060009450876040518082805190602001908083835b602083101515610433578051825260208201915060208101905060208303925061040e565b6001836020036101000a03801982511681845116808217855250505050505090500191505060405180910390209350600092505b600080856000191660001916815260200190815260200160002060010154831015610550576000808560001916600019168152602001908152602001600020600301600084815260200190815260200160002060020160009054906101000a900460ff16151561050c57600080856000191660001916815260200190815260200160002060030160008481526020019081526020016000206001015485019450610543565b6000808560001916600019168152602001908152602001600020600301600084815260200190815260200160002060010154860195505b8280600101935050610467565b8585870181151561055d57fe5b0491508485870181151561056d57fe5b049050848611156106cd57600092505b6000808560001916600019168152602001908152602001600020600101548310156106c8576000808560001916600019168152602001908152602001600020600301600084815260200190815260200160002060020160009054906101000a900460ff16156106bb5760008085600019166000191681526020019081526020016000206003016000848152602001908152602001600020600101548202600260008060008860001916600019168152602001908152602001600020600301600087815260200190815260200160002060000160009054906101000a900473ffffffffffffffffffffffffffffffffffffffff1673ffffffffffffffffffffffffffffffffffffffff1673ffffffffffffffffffffffffffffffffffffffff168152602001908152602001600020600101600082825401925050819055505b828060010193505061057d565b61081f565b600092505b60008085600019166000191681526020019081526020016000206001015483101561081e576000808560001916600019168152602001908152602001600020600301600084815260200190815260200160002060020160009054906101000a900460ff1615156108115760008085600019166000191681526020019081526020016000206003016000848152602001908152602001600020600101548102600260008060008860001916600019168152602001908152602001600020600301600087815260200190815260200160002060000160009054906101000a900473ffffffffffffffffffffffffffffffffffffffff1673ffffffffffffffffffffffffffffffffffffffff1673ffffffffffffffffffffffffffffffffffffffff168152602001908152602001600020600101600082825401925050819055505b82806001019350506106d2565b5b809650505050505050919050565b6040805190810160405280600081526020016000815250600260003373ffffffffffffffffffffffffffffffffffffffff1673ffffffffffffffffffffffffffffffffffffffff1681526020019081526020016000206000820151816000015560208201518160010155905050565b6000600260003373ffffffffffffffffffffffffffffffffffffffff1673ffffffffffffffffffffffffffffffffffffffff16815260200190815260200160002060000154905090565b6000600a600260003373ffffffffffffffffffffffffffffffffffffffff1673ffffffffffffffffffffffffffffffffffffffff16815260200190815260200160002060010160008282540192505081905550600260003373ffffffffffffffffffffffffffffffffffffffff1673ffffffffffffffffffffffffffffffffffffffff16815260200190815260200160002060010154905090565b6000600260003373ffffffffffffffffffffffffffffffffffffffff1673ffffffffffffffffffffffffffffffffffffffff168152602001908152602001600020600001541115156109d257600080fd5b600260003373ffffffffffffffffffffffffffffffffffffffff1673ffffffffffffffffffffffffffffffffffffffff1681526020019081526020016000206000016000815480929190600190039190505550600080826040518082805190602001908083835b602083101515610a5e5780518252602082019150602081019050602083039250610a39565b6001836020036101000a0380198251168184511680821785525050505050509050019150506040518091039020600019166000191681526020019081526020016000206002016000815480929190600101919050555050565b60008083600260003373ffffffffffffffffffffffffffffffffffffffff1673ffffffffffffffffffffffffffffffffffffffff1681526020019081526020016000206001015410151515610b0b57600080fd5b8360015402600260003373ffffffffffffffffffffffffffffffffffffffff1673ffffffffffffffffffffffffffffffffffffffff1681526020019081526020016000206000016000828254019250508190555083600260003373ffffffffffffffffffffffffffffffffffffffff1673ffffffffffffffffffffffffffffffffffffffff16815260200190815260200160002060010160008282540392505081905550846040518082805190602001908083835b602083101515610be55780518252602082019150602081019050602083039250610bc0565b6001836020036101000a0380198251168184511680821785525050505050509050019150506040518091039020915060008083600019166000191681526020019081526020016000206001015490506060604051908101604052803373ffffffffffffffffffffffffffffffffffffffff1681526020018581526020018415158152506000808460001916600019168152602001908152602001600020600301600083815260200190815260200160002060008201518160000160006101000a81548173ffffffffffffffffffffffffffffffffffffffff021916908373ffffffffffffffffffffffffffffffffffffffff1602179055506020820151816001015560408201518160020160006101000a81548160ff0219169083151502179055509050506000808360001916600019168152602001908152602001600020600101600081548092919060010191905055505050505050565b600080846040518082805190602001908083835b602083101515610d775780518252602082019150602081019050602083039250610d52565b6001836020036101000a038019825116818451168082178552505050505050905001915050604051809103902091506000808360001916600019168152602001908152602001600020600101549050606060405190810160405280600073ffffffffffffffffffffffffffffffffffffffff1681526020018581526020018415158152506000808460001916600019168152602001908152602001600020600301600083815260200190815260200160002060008201518160000160006101000a81548173ffffffffffffffffffffffffffffffffffffffff021916908373ffffffffffffffffffffffffffffffffffffffff1602179055506020820151816001015560408201518160020160006101000a81548160ff0219169083151502179055509050506000808360001916600019168152602001908152602001600020600101600081548092919060010191905055505050505050565b6000600260003373ffffffffffffffffffffffffffffffffffffffff1673ffffffffffffffffffffffffffffffffffffffff16815260200190815260200160002060010154905090565b6000806000836040518082805190602001908083835b602083101515610f565780518252602082019150602081019050602083039250610f31565b6001836020036101000a038019825116818451168082178552505050505050905001915050604051809103902060001916600019168152602001908152602001600020600201549050919050565b6000600a600260003373ffffffffffffffffffffffffffffffffffffffff1673ffffffffffffffffffffffffffffffffffffffff16815260200190815260200160002060000160008282540192505081905550600260003373ffffffffffffffffffffffffffffffffffffffff1673ffffffffffffffffffffffffffffffffffffffff16815260200190815260200160002060000154905090565b606060405190810160405280428152602001600081526020016000815250600080836040518082805190602001908083835b6020831015156110965780518252602082019150602081019050602083039250611071565b6001836020036101000a038019825116818451168082178552505050505050905001915050604051809103902060001916600019168152602001908152602001600020600082015181600001556020820151816001015560408201518160020155905050505600a165627a7a72305820d814eb15a0d23e9ccaa46b8ccf3b9c5f00c45a89700050bca6534521d3f93fa50029",
  "source": "pragma solidity ^0.4.17;\n\ncontract ViewContract{\n\n  struct wallets{\n      uint viewBalance;\n      uint voteBalance;\n  }\n\n  struct voteCount{\n    address _address;\n    uint _number;\n    bool _vote;\n  }\n\n  struct Market{\n      uint _time;\n      uint _latestVote;\n      uint _viewTokenCount;\n      mapping (uint => voteCount) listOfVotes;\n  }\n\n  mapping (bytes32 => Market) openMarkets;\n  uint viewVoteRatio = 3;\n\n  mapping (address => wallets) balances;\n\n\tfunction viewing(string _website) public{\n\t\trequire(balances[msg.sender].viewBalance > 0);\n    balances[msg.sender].viewBalance--;\n    openMarkets[keccak256(_website)]._viewTokenCount++;\n\t}\n\n  function createOpenMarket(string _website) public {\n      openMarkets[keccak256(_website)] =  Market({\n        _time: now,\n        _latestVote: 0,\n        _viewTokenCount: 0\n      });\n  }\n\n  function addVote(string _website, uint number, bool vote) public {\n      require(balances[msg.sender].voteBalance >= number);\n\n      balances[msg.sender].viewBalance += viewVoteRatio*number;\n      balances[msg.sender].voteBalance -= number;\n\n      bytes32 website = keccak256(_website);\n      uint latestVote = openMarkets[website]._latestVote;\n\n      openMarkets[website].listOfVotes[latestVote] =  voteCount({\n            _address: msg.sender,\n            _number: number,\n            _vote: vote\n      });\n      openMarkets[website]._latestVote++;\n  }\n\n  function closeMarket(string _website) public returns (uint) {\n    uint yesCounts = 0;\n    uint noCounts = 0;\n    bytes32 website = keccak256(_website);\n\n    for (uint i = 0; i < openMarkets[website]._latestVote; i++){\n      if (!openMarkets[website].listOfVotes[i]._vote){\n        noCounts += openMarkets[website].listOfVotes[i]._number;\n      }\n      else\n        yesCounts += openMarkets[website].listOfVotes[i]._number;\n    }\n    uint yratio = (yesCounts+noCounts)/yesCounts;\n    uint nratio = (yesCounts+noCounts)/noCounts;\n\n    if (yesCounts > noCounts){\n      for (i = 0; i < openMarkets[website]._latestVote; i++){\n        if (openMarkets[website].listOfVotes[i]._vote){\n          balances[openMarkets[website].listOfVotes[i]._address].voteBalance\n          += yratio * openMarkets[website].listOfVotes[i]._number;\n        }\n      }\n    }\n    else{\n      for (i = 0; i < openMarkets[website]._latestVote; i++){\n        if (!openMarkets[website].listOfVotes[i]._vote){\n          balances[openMarkets[website].listOfVotes[i]._address].voteBalance\n          += nratio * openMarkets[website].listOfVotes[i]._number;\n        }\n      }\n    }\n    return nratio;\n  }\n\n  // These 7 functions are solely for testing purposes\n  function createWallet() public{\n    balances[msg.sender] = wallets(0,0);\n  }\n\n  function getMarketView(string _website) public view returns (uint){\n    return openMarkets[keccak256(_website)]._viewTokenCount;\n  }\n\n  function addViewBalance() public returns (uint){\n    balances[msg.sender].viewBalance += 10;\n    return balances[msg.sender].viewBalance;\n  }\n\n  function addVoteBalance() public returns (uint){\n    balances[msg.sender].voteBalance+=10;\n    return balances[msg.sender].voteBalance;\n  }\n\n  function getViewBalance() public view returns (uint){\n    return balances[msg.sender].viewBalance;\n  }\n\n  function getVoteBalance() public view returns (uint){\n    return balances[msg.sender].voteBalance;\n  }\n\n  function addVoteManualNoOrigin(string _website, uint number, bool vote) public {\n\n      bytes32 website = keccak256(_website);\n      uint latestVote = openMarkets[website]._latestVote;\n\n      openMarkets[website].listOfVotes[latestVote] =  voteCount({\n            _address: 0x0,\n            _number: number,\n            _vote: vote\n      });\n      openMarkets[website]._latestVote++;\n  }\n\n}\n",
  "sourcePath": "/Users/Howy/git/ethProjs/truffle/vopo/contracts/ViewContract.sol",
  "compiler": {
    "name": "solc",
    "version": "0.4.18+commit.9cf6e910.Emscripten.clang"
  },
  "schemaVersion": "1.0.1",
  "updatedAt": "2018-02-18T06:36:19.277Z"
}