{
  "contractName": "VoteContract",
  "abi": [
    {
      "constant": false,
      "inputs": [
        {
          "name": "_website",
          "type": "string"
        }
      ],
      "name": "closeMarket",
      "outputs": [
        {
          "name": "",
          "type": "uint256"
        }
      ],
      "payable": false,
      "stateMutability": "nonpayable",
      "type": "function"
    },
    {
      "constant": false,
      "inputs": [],
      "name": "createWallet",
      "outputs": [],
      "payable": false,
      "stateMutability": "nonpayable",
      "type": "function"
    },
    {
      "constant": true,
      "inputs": [],
      "name": "getViewBalance",
      "outputs": [
        {
          "name": "",
          "type": "uint256"
        }
      ],
      "payable": false,
      "stateMutability": "view",
      "type": "function"
    },
    {
      "constant": false,
      "inputs": [],
      "name": "addVoteBalance",
      "outputs": [
        {
          "name": "",
          "type": "uint256"
        }
      ],
      "payable": false,
      "stateMutability": "nonpayable",
      "type": "function"
    },
    {
      "constant": false,
      "inputs": [
        {
          "name": "_website",
          "type": "string"
        },
        {
          "name": "number",
          "type": "uint256"
        },
        {
          "name": "vote",
          "type": "bool"
        }
      ],
      "name": "addVote",
      "outputs": [],
      "payable": false,
      "stateMutability": "nonpayable",
      "type": "function"
    },
    {
      "constant": true,
      "inputs": [],
      "name": "getVoteBalance",
      "outputs": [
        {
          "name": "",
          "type": "uint256"
        }
      ],
      "payable": false,
      "stateMutability": "view",
      "type": "function"
    },
    {
      "constant": false,
      "inputs": [],
      "name": "addViewBalance",
      "outputs": [
        {
          "name": "",
          "type": "uint256"
        }
      ],
      "payable": false,
      "stateMutability": "nonpayable",
      "type": "function"
    },
    {
      "constant": false,
      "inputs": [
        {
          "name": "_website",
          "type": "string"
        }
      ],
      "name": "createOpenMarket",
      "outputs": [],
      "payable": false,
      "stateMutability": "nonpayable",
      "type": "function"
    }
  ],
  "bytecode": "0x60606040526003600055341561001457600080fd5b610c84806100236000396000f30060606040526004361061008e576000357c0100000000000000000000000000000000000000000000000000000000900463ffffffff1680630fc263471461009357806311ebbf2414610104578063274aafcb146101195780632b8b333a146101425780633c05ba461461016b5780639469378e146101dc578063ada8eefc14610205578063cc50de191461022e575b600080fd5b341561009e57600080fd5b6100ee600480803590602001908201803590602001908080601f0160208091040260200160405190810160405280939291908181526020018383808284378201915050505050509190505061028b565b6040518082815260200191505060405180910390f35b341561010f57600080fd5b6101176106d6565b005b341561012457600080fd5b61012c610745565b6040518082815260200191505060405180910390f35b341561014d57600080fd5b61015561078f565b6040518082815260200191505060405180910390f35b341561017657600080fd5b6101da600480803590602001908201803590602001908080601f01602080910402602001604051908101604052809392919081815260200183838082843782019150505050505091908035906020019091908035151590602001909190505061082a565b005b34156101e757600080fd5b6101ef610ab4565b6040518082815260200191505060405180910390f35b341561021057600080fd5b610218610afe565b6040518082815260200191505060405180910390f35b341561023957600080fd5b610289600480803590602001908201803590602001908080601f01602080910402602001604051908101604052809392919081815260200183838082843782019150505050505091905050610b99565b005b600080600080600080600080955060009450876040518082805190602001908083835b6020831015156102d357805182526020820191506020810190506020830392506102ae565b6001836020036101000a03801982511681845116808217855250505050505090500191505060405180910390209350600092505b600260008560001916600019168152602001908152602001600020600101548310156103f457600260008560001916600019168152602001908152602001600020600301600084815260200190815260200160002060020160009054906101000a900460ff1615156103af57600260008560001916600019168152602001908152602001600020600301600084815260200190815260200160002060010154850194506103e7565b600260008560001916600019168152602001908152602001600020600301600084815260200190815260200160002060010154860195505b8280600101935050610307565b8585870181151561040157fe5b0491508485870181151561041157fe5b0490508486111561057557600092505b6002600085600019166000191681526020019081526020016000206001015483101561057057600260008560001916600019168152602001908152602001600020600301600084815260200190815260200160002060020160009054906101000a900460ff161561056357600260008560001916600019168152602001908152602001600020600301600084815260200190815260200160002060010154820260016000600260008860001916600019168152602001908152602001600020600301600087815260200190815260200160002060000160009054906101000a900473ffffffffffffffffffffffffffffffffffffffff1673ffffffffffffffffffffffffffffffffffffffff1673ffffffffffffffffffffffffffffffffffffffff168152602001908152602001600020600101600082825401925050819055505b8280600101935050610421565b6106cb565b600092505b600260008560001916600019168152602001908152602001600020600101548310156106ca57600260008560001916600019168152602001908152602001600020600301600084815260200190815260200160002060020160009054906101000a900460ff1615156106bd57600260008560001916600019168152602001908152602001600020600301600084815260200190815260200160002060010154810260016000600260008860001916600019168152602001908152602001600020600301600087815260200190815260200160002060000160009054906101000a900473ffffffffffffffffffffffffffffffffffffffff1673ffffffffffffffffffffffffffffffffffffffff1673ffffffffffffffffffffffffffffffffffffffff168152602001908152602001600020600101600082825401925050819055505b828060010193505061057a565b5b505050505050919050565b6040805190810160405280600081526020016000815250600160003373ffffffffffffffffffffffffffffffffffffffff1673ffffffffffffffffffffffffffffffffffffffff1681526020019081526020016000206000820151816000015560208201518160010155905050565b6000600160003373ffffffffffffffffffffffffffffffffffffffff1673ffffffffffffffffffffffffffffffffffffffff16815260200190815260200160002060000154905090565b6000600a600160003373ffffffffffffffffffffffffffffffffffffffff1673ffffffffffffffffffffffffffffffffffffffff16815260200190815260200160002060010160008282540192505081905550600160003373ffffffffffffffffffffffffffffffffffffffff1673ffffffffffffffffffffffffffffffffffffffff16815260200190815260200160002060010154905090565b60008083600160003373ffffffffffffffffffffffffffffffffffffffff1673ffffffffffffffffffffffffffffffffffffffff168152602001908152602001600020600101541015151561087e57600080fd5b8360005402600160003373ffffffffffffffffffffffffffffffffffffffff1673ffffffffffffffffffffffffffffffffffffffff1681526020019081526020016000206000016000828254019250508190555083600160003373ffffffffffffffffffffffffffffffffffffffff1673ffffffffffffffffffffffffffffffffffffffff16815260200190815260200160002060010160008282540392505081905550846040518082805190602001908083835b6020831015156109585780518252602082019150602081019050602083039250610933565b6001836020036101000a038019825116818451168082178552505050505050905001915050604051809103902091506002600083600019166000191681526020019081526020016000206001015490506060604051908101604052803373ffffffffffffffffffffffffffffffffffffffff168152602001858152602001841515815250600260008460001916600019168152602001908152602001600020600301600083815260200190815260200160002060008201518160000160006101000a81548173ffffffffffffffffffffffffffffffffffffffff021916908373ffffffffffffffffffffffffffffffffffffffff1602179055506020820151816001015560408201518160020160006101000a81548160ff021916908315150217905550905050600260008360001916600019168152602001908152602001600020600101600081548092919060010191905055505050505050565b6000600160003373ffffffffffffffffffffffffffffffffffffffff1673ffffffffffffffffffffffffffffffffffffffff16815260200190815260200160002060010154905090565b6000600a600160003373ffffffffffffffffffffffffffffffffffffffff1673ffffffffffffffffffffffffffffffffffffffff16815260200190815260200160002060000160008282540192505081905550600160003373ffffffffffffffffffffffffffffffffffffffff1673ffffffffffffffffffffffffffffffffffffffff16815260200190815260200160002060000154905090565b60606040519081016040528042815260200160008152602001600081525060026000836040518082805190602001908083835b602083101515610bf15780518252602082019150602081019050602083039250610bcc565b6001836020036101000a038019825116818451168082178552505050505050905001915050604051809103902060001916600019168152602001908152602001600020600082015181600001556020820151816001015560408201518160020155905050505600a165627a7a7230582046b57ec9ea798f685520f87a50a90621853dd30f3aa71e557d81de7dffaa8c030029",
  "source": "pragma solidity ^0.4.17;\n\ncontract VoteContract{\n\n\n    uint viewVoteRatio = 3;\n\n    struct wallets{\n        uint viewBalance;\n        uint voteBalance;\n    }\n\n    mapping (address => wallets) balances;\n\n    struct voteCount{\n      address _address;\n      uint _number;\n      bool _vote;\n    }\n\n    struct Market{\n        uint _time;\n        uint _latestVote;\n        uint _viewTokenCount;\n        mapping (uint => voteCount) listOfVotes;\n    }\n\n    mapping (bytes32 => Market) openMarkets;\n\n    function createOpenMarket(string _website) public {\n        openMarkets[keccak256(_website)] =  Market({\n          _time: now,\n          _latestVote: 0,\n          _viewTokenCount: 0\n        });\n    }\n\n    function addVote(string _website, uint number, bool vote) public {\n        require(balances[msg.sender].voteBalance >= number);\n\n        balances[msg.sender].viewBalance += viewVoteRatio*number;\n        balances[msg.sender].voteBalance -= number;\n\n        bytes32 website = keccak256(_website);\n        uint latestVote = openMarkets[website]._latestVote;\n\n        openMarkets[website].listOfVotes[latestVote] =  voteCount({\n              _address: msg.sender,\n              _number: number,\n              _vote: vote\n          });\n\n        openMarkets[website]._latestVote++;\n    }\n\n\n    function closeMarket(string _website) public returns (uint) {\n      uint yesCounts = 0;\n      uint noCounts = 0;\n      bytes32 website = keccak256(_website);\n\n      for (uint i = 0; i < openMarkets[website]._latestVote; i++){\n        if (!openMarkets[website].listOfVotes[i]._vote){\n          noCounts += openMarkets[website].listOfVotes[i]._number;\n        }\n        else\n          yesCounts += openMarkets[website].listOfVotes[i]._number;\n      }\n      uint yratio = (yesCounts+noCounts)/yesCounts;\n      uint nratio = (yesCounts+noCounts)/noCounts;\n\n      if (yesCounts > noCounts){\n        for (i = 0; i < openMarkets[website]._latestVote; i++){\n          if (openMarkets[website].listOfVotes[i]._vote){\n            balances[openMarkets[website].listOfVotes[i]._address].voteBalance\n            += yratio * openMarkets[website].listOfVotes[i]._number;\n          }\n        }\n      }\n      else{\n        for (i = 0; i < openMarkets[website]._latestVote; i++){\n          if (!openMarkets[website].listOfVotes[i]._vote){\n            balances[openMarkets[website].listOfVotes[i]._address].voteBalance\n            += nratio * openMarkets[website].listOfVotes[i]._number;\n          }\n        }\n      }\n    }\n\n    // These 5 functions are solely for testing\n      function createWallet() public{\n        balances[msg.sender] = wallets(0,0);\n      }\n\n      function addViewBalance() public returns (uint){\n        balances[msg.sender].viewBalance+=10;\n        return balances[msg.sender].viewBalance;\n      }\n\n      function addVoteBalance() public returns (uint){\n        balances[msg.sender].voteBalance+=10;\n        return balances[msg.sender].voteBalance;\n      }\n\n      function getViewBalance() public view returns (uint){\n        return balances[msg.sender].viewBalance;\n      }\n\n      function getVoteBalance() public view returns (uint){\n        return balances[msg.sender].voteBalance;\n      }\n\n}\n",
  "sourcePath": "/Users/Howy/git/ethProjs/truffle/vopo/contracts/VoteContract.sol",
  "compiler": {
    "name": "solc",
    "version": "0.4.18+commit.9cf6e910.Emscripten.clang"
  },
  "schemaVersion": "1.0.1",
  "updatedAt": "2018-02-18T05:55:59.186Z"
}